:100000000C9462000C948A000C948A000C948A0070
:100010000C948A000C948A000C948A000C948A0038
:100020000C948A000C948A000C948A000C948A0028
:100030000C948A000C948A000C948A000C948A0018
:100040000C942D030C948A000C949D030C9477035C
:100050000C948A000C948A000C948A000C948A00F8
:100060000C948A000C948A000000000024002700F1
:100070002A0000000000250028002B0000000008D6
:10008000000201000003040700000000000000005F
:1000900000000000230026002900040404040404D6
:1000A0000404020202020202030303030303010227
:1000B00004081020408001020408102001020408F6
:1000C00010207D0511241FBECFEFD8E0DEBFCDBFCD
:1000D00011E0A0E0B1E0E4E3FCE002C005900D9285
:1000E000AA31B107D9F721E0AAE1B1E001C01D9220
:1000F000A03CB207E1F710E0C2E6D0E004C02197CF
:10010000FE010E940D06C136D107C9F70E941404F2
:100110000C9418060C94000090E0FC01E458FF4F8A
:100120003491FC01E255FF4F2491FC01E656FF4F4C
:10013000E491EE2309F43BC0332339F1333091F0DD
:1001400038F43130A9F0323001F584B58F7D12C01A
:10015000373091F03830A1F03430B9F4809180001C
:100160008F7D03C0809180008F77809380000DC0C9
:1001700084B58F7784BD09C08091B0008F7703C0AC
:100180008091B0008F7D8093B000F0E0EE0FFF1FF4
:10019000EE58FF4FA591B4918FB7F894EC9161118F
:1001A00003C020952E2301C02E2B2C938FBF0895C2
:1001B000CF93DF9390E0FC01E255FF4F2491FC01C7
:1001C000E656FF4F8491882361F190E0880F991FD4
:1001D000FC01E859FF4FC591D491FC01EE58FF4F47
:1001E000A591B491611109C09FB7F89488812095B9
:1001F00082238883EC912E230BC0623061F49FB779
:10020000F8943881822F809583238883EC912E2B5C
:100210002C939FBF06C08FB7F894E8812E2B2883BC
:100220008FBFDF91CF9108953FB7F89480911F0160
:1002300090912001A0912101B091220126B5A89BA7
:1002400005C02F3F19F00196A11DB11D3FBFBA2F68
:10025000A92F982F8827820F911DA11DB11DBC01C8
:10026000CD0142E0660F771F881F991F4A95D1F78D
:1002700008958F929F92AF92BF92CF92DF92EF92AA
:10028000FF926B017C010E9414014B015C01C114BF
:10029000D104E104F104F1F00E941401DC01CB016E
:1002A00088199909AA09BB09883E9340A105B1059F
:1002B00070F321E0C21AD108E108F10888EE880E37
:1002C00083E0981EA11CB11CC114D104E104F10407
:1002D00019F7DDCFFF90EF90DF90CF90BF90AF90F8
:1002E0009F908F900895CF92DF92EF92FF920F939D
:1002F0001F93CF93DF936C017A018B01C0E0D0E0B4
:10030000CE15DF0589F0D8016D918D01D601ED91F3
:10031000FC910190F081E02DC6010995892B11F423
:100320007E0102C02196ECCFC701DF91CF911F91D2
:100330000F91FF90EF90DF90CF900895089580E0A7
:1003400090E00895FC01538D448D252F30E0842FDB
:1003500090E0821B930B541710F0CF9608950197ED
:100360000895FC01918D828D981761F0828DDF01D7
:10037000A80FB11D5D968C91928D9F5F9F73928F98
:1003800090E008958FEF9FEF0895FC01918D828D8D
:10039000981731F0828DE80FF11D858D90E008955A
:1003A0008FEF9FEF0895FC01918D228D892F90E0B2
:1003B000805C9F4F821B91098F739927089583E278
:1003C00091E00E94D30121E0892B09F420E0822FE3
:1003D0000895FC01848DDF01A80FB11DA35ABF4F02
:1003E0002C91848D90E001968F739927848FA68934
:1003F000B7892C93A089B1898C9180648C93938D5B
:10040000848D981306C00288F389E02D80818F7D4A
:1004100080830895EF92FF920F931F93CF93DF9302
:10042000EC0181E0888F9B8D8C8D981305C0E88945
:10043000F989808185FD24C0F62E0B8D10E00F5FB9
:100440001F4F0F731127E02E8C8DE8120CC00FB6D2
:1004500007FCFACFE889F989808185FFF5CFCE01C5
:100460000E94E901F1CF8B8DFE01E80FF11DE35AE7
:10047000FF4FF0820B8FEA89FB898081806207C081
:10048000EE89FF896083E889F989808180648083AF
:1004900081E090E0DF91CF911F910F91FF90EF905D
:1004A0000895CF93DF93EC01888D8823C9F0EA8902
:1004B000FB89808185FD05C0A889B9898C9186FD5D
:1004C0000FC00FB607FCF5CF808185FFF2CFA8895A
:1004D000B9898C9185FFEDCFCE010E94E901E7CF6C
:1004E000DF91CF91089580E090E0892B29F00E9460
:1004F000DF0181110C9400000895009769F0FC0160
:1005000001900020E9F73197AF01481B590BBC015E
:1005100083E291E00C94730180E090E008958F9263
:100520009F92AF92BF920F931F93CF93DF93CDB75C
:10053000DEB7A1970FB6F894DEBF0FBECDBF19A2EC
:10054000423008F44AE08E010F5D1F4F842E912C3B
:10055000A12CB12CA50194010E94DC05E62FB90164
:10056000CA0101501109EA3014F4E05D01C0E95CF0
:10057000D801EC93232B242B252B61F7C8010E9473
:100580007D02A1960FB6F894DEBF0FBECDBFDF91FE
:10059000CF911F910F91BF90AF909F908F90089532
:1005A000CF92DF92EF92FF92CF93DF936B017C01AA
:1005B000E0912301F09124010190F081E02D6DE2A2
:1005C00083E291E00995EC0166277727CB016C194E
:1005D0007D098E099F094AE00E948F028C0F9D1FA2
:1005E000DF91CF91FF90EF90DF90CF900895BC0105
:1005F000990F880B990B97FD0C94D0024AE00C944C
:100600008F020F931F93E8EBF0E06491E4EAF0E0CF
:10061000E491F0E0EE0FFF1FE057FF4F85919491BA
:1006200008EE13E020E030E040E00E94CF036115C7
:1006300071058105910549F0DC01CB010196A11DF1
:10064000B11DBC01CD019F7003C060E070E0CB0123
:100650001F910F9108950E9413061F920F920FB6DB
:100660000F9211242F933F938F939F93AF93BF9338
:1006700080911B0190911C01A0911D01B0911E0160
:1006800030911A0123E0230F2D3720F40196A11D8C
:10069000B11D05C026E8230F0296A11DB11D2093B0
:1006A0001A0180931B0190931C01A0931D01B0932C
:1006B0001E0180911F0190912001A0912101B09114
:1006C00022010196A11DB11D80931F01909320016D
:1006D000A0932101B0932201BF91AF919F918F917F
:1006E0003F912F910F900FBE0F901F9018951F9262
:1006F0000F920FB60F9211242F933F934F935F9356
:100700006F937F938F939F93AF93BF93EF93FF93D9
:1007100083E291E00E94E901FF91EF91BF91AF91D7
:100720009F918F917F916F915F914F913F912F9109
:100730000F900FBE0F901F9018951F920F920FB63B
:100740000F9211242F938F939F93EF93FF93E09138
:100750003301F09134018081E0913901F0913A0147
:1007600082FD12C0908180913C018F5F8F73209138
:100770003D01821751F0E0913C01F0E0ED5DFE4F4C
:10078000958F80933C0101C08081FF91EF919F91F3
:100790008F912F910F900FBE0F901F901895CF92B1
:1007A000DF92EF92FF920F931F93E82FF92F05C06E
:1007B000015011092109310961F1908196239417A3
:1007C000B9F305C0015011092109310911F19081D6
:1007D00096239413F7CFC12CD12CE12CF12C0AC015
:1007E0008FEFC81AD80AE80AF80A0C151D052E055D
:1007F0003F0579F080818623841791F36C2D7D2D40
:100800008E2D9F2D1F910F91FF90EF90DF90CF9035
:10081000089560E070E080E090E01F910F91FF90FC
:10082000EF90DF90CF900895CF93DF9300D000D06A
:10083000CDB7DEB7789484B5826084BD84B581601D
:1008400084BD85B5826085BD85B5816085BD80919B
:100850006E00816080936E00109281008091810013
:10086000826080938100809181008160809381000B
:10087000809180008160809380008091B1008460CD
:100880008093B1008091B00081608093B00080912E
:100890007A00846080937A0080917A0082608093ED
:1008A0007A0080917A00816080937A0080917A004A
:1008B000806880937A001092C10061E085E00E9418
:1008C000D80061E086E00E94D80061E087E00E94E5
:1008D000D80061E088E00E94D80060E08AE00E94D1
:1008E000D80061E085E00E948C0060E086E00E9414
:1008F0008C00E0913301F091340182E08083E0913B
:100900002F01F09130011082E0913101F09132011C
:100910008FEC808310923B01E0913701F091380118
:1009200086E08083E0913501F0913601808180611D
:100930008083E0913501F091360180818860808369
:10094000E0913501F0913601808180688083E091EB
:100950003501F091360180818F7D80838DE6482EB0
:10096000512C612C712C60E087E00E948C0060E0CB
:1009700088E00E948C006EE170E080E090E00E94D0
:1009800039010E94010369837A838B839C8361E030
:1009900087E00E948C0061E088E00E948C006EE19C
:1009A00070E080E090E00E9439010E9401034B0159
:1009B0005C0160E087E00E948C0061E088E00E94BA
:1009C0008C006EE170E080E090E00E9439010E94AE
:1009D00001036B017C0189819A810E94F7022981C0
:1009E0003A81C901330FAA0BBB0B9C01AD01225107
:1009F000310941095109A1E0BFEF0E94D7052AE75B
:100A000030E040E050E00E94AA05DA01C9018150BF
:100A10009F4FAF4FBF4F89839A83AB83BC8382E1E3
:100A200091E00E947D0289819A810E94F70284E10F
:100A300091E00E947D02C4010E94F702C401990C5A
:100A4000AA0BBB0B9C01AD012A5131094109510987
:100A5000A1E0BFEF0E94D70522E930E040E050E07E
:100A60000E94AA0549015A019FEF890E911CA11C01
:100A7000B11C82E191E00E947D02C4010E94F70254
:100A800084E191E00E947D02C6010E94F702C60146
:100A9000DD0CAA0BBB0B9C01AD01255131094109AD
:100AA0005109A1E0BFEF0E94D705A30192010E9466
:100AB000AA0569017A01AFEFCA0ED11CE11CF11C35
:100AC00082E191E00E947D02B601DD0C880B990B5A
:100AD00097FF03C00E94D00203C04AE00E948F0229
:100AE00086E191E00E947D026AE070E080E090E0A3
:100AF0000E9439010E94730236CFE3E2F1E01382D3
:100B0000128288EE93E0A0E0B0E084839583A68310
:100B1000B78384E091E09183808385EC90E09587B2
:100B2000848784EC90E09787868780EC90E0918BB7
:100B3000808B81EC90E0938B828B82EC90E0958BA4
:100B4000848B86EC90E0978B868B118E128E138EA1
:100B5000148E0895052E97FB1EF400940E94C10583
:100B600057FD07D00E94DC0507FC03D04EF40C941F
:100B7000C10550954095309521953F4F4F4F5F4FA0
:100B8000089590958095709561957F4F8F4F9F4FF9
:100B900008950E94FE05A59F900DB49F900DA49FFF
:100BA000800D911D11240895B7FF0C94C9050E9472
:100BB000C905821B930B0895A1E21A2EAA1BBB1B29
:100BC000FD010DC0AA1FBB1FEE1FFF1FA217B30719
:100BD000E407F50720F0A21BB30BE40BF50B661F2F
:100BE000771F881F991F1A9469F7609570958095F3
:100BF00090959B01AC01BD01CF010895A29FB0016A
:100C0000B39FC001A39F700D811D1124911DB29F40
:100C1000700D811D1124911D0895EE0FFF1F059089
:100C2000F491E02D099481E090E0F8940C9418067A
:040C3000F894FFCF66
:100C3400000000000A027301A2015102D301B101B4
:0A0C4400C5013E002C000D0A00005F
:00000001FF
